{
  "_format": "hh-sol-artifact-1",
  "contractName": "WavePortal",
  "sourceName": "contracts/WebPortal.sol",
  "abi": [
    {
      "inputs": [],
      "stateMutability": "nonpayable",
      "type": "constructor"
    },
    {
      "inputs": [],
      "name": "getNumberOfWavers",
      "outputs": [
        {
          "internalType": "uint256",
          "name": "",
          "type": "uint256"
        }
      ],
      "stateMutability": "view",
      "type": "function"
    },
    {
      "inputs": [],
      "name": "getTotalWaves",
      "outputs": [
        {
          "internalType": "uint256",
          "name": "",
          "type": "uint256"
        }
      ],
      "stateMutability": "view",
      "type": "function"
    },
    {
      "inputs": [],
      "name": "wave",
      "outputs": [],
      "stateMutability": "nonpayable",
      "type": "function"
    }
  ],
  "bytecode": "0x608060405234801561001057600080fd5b5033600260006101000a81548173ffffffffffffffffffffffffffffffffffffffff021916908373ffffffffffffffffffffffffffffffffffffffff16021790555061009a6040518060400160405280601381526020017f48656c6c6f2043727970746f20576f726c64210000000000000000000000000081525061009f60201b61023b1760201c565b610222565b61013b816040516024016100b391906101a0565b6040516020818303038152906040527f41304fac000000000000000000000000000000000000000000000000000000007bffffffffffffffffffffffffffffffffffffffffffffffffffffffff19166020820180517bffffffffffffffffffffffffffffffffffffffffffffffffffffffff838183161783525050505061013e60201b60201c565b50565b60008151905060006a636f6e736f6c652e6c6f679050602083016000808483855afa5050505050565b6000610172826101c2565b61017c81856101cd565b935061018c8185602086016101de565b61019581610211565b840191505092915050565b600060208201905081810360008301526101ba8184610167565b905092915050565b600081519050919050565b600082825260208201905092915050565b60005b838110156101fc5780820151818401526020810190506101e1565b8381111561020b576000848401525b50505050565b6000601f19601f8301169050919050565b610680806102316000396000f3fe608060405234801561001057600080fd5b50600436106100415760003560e01c80636fe15b44146100465780637b9fdfda146100505780639a2cdc081461006e575b600080fd5b61004e61008c565b005b61005861019f565b604051610065919061050e565b60405180910390f35b6100766101f0565b604051610083919061050e565b60405180910390f35b600160008082825461009e9190610545565b92505081905550600260009054906101000a900473ffffffffffffffffffffffffffffffffffffffff1673ffffffffffffffffffffffffffffffffffffffff163373ffffffffffffffffffffffffffffffffffffffff161461015e576001339080600181540180825580915050600190039060005260206000200160009091909190916101000a81548173ffffffffffffffffffffffffffffffffffffffff021916908373ffffffffffffffffffffffffffffffffffffffff1602179055505b61019d6040518060400160405280600d81526020017f2573206861732077617665642100000000000000000000000000000000000000815250336102d4565b565b60006101e56040518060400160405280601f81526020017f54686572652069732f6172652025642067756573742077617665722873292100815250600180549050610370565b600180549050905090565b60006102336040518060400160405280601781526020017f5765206861766520256420746f74616c20776176657321000000000000000000815250600054610370565b600054905090565b6102d18160405160240161024f919061048c565b6040516020818303038152906040527f41304fac000000000000000000000000000000000000000000000000000000007bffffffffffffffffffffffffffffffffffffffffffffffffffffffff19166020820180517bffffffffffffffffffffffffffffffffffffffffffffffffffffffff838183161783525050505061040c565b50565b61036c82826040516024016102ea9291906104ae565b6040516020818303038152906040527f319af333000000000000000000000000000000000000000000000000000000007bffffffffffffffffffffffffffffffffffffffffffffffffffffffff19166020820180517bffffffffffffffffffffffffffffffffffffffffffffffffffffffff838183161783525050505061040c565b5050565b61040882826040516024016103869291906104de565b6040516020818303038152906040527f9710a9d0000000000000000000000000000000000000000000000000000000007bffffffffffffffffffffffffffffffffffffffffffffffffffffffff19166020820180517bffffffffffffffffffffffffffffffffffffffffffffffffffffffff838183161783525050505061040c565b5050565b60008151905060006a636f6e736f6c652e6c6f679050602083016000808483855afa5050505050565b61043e8161059b565b82525050565b600061044f82610529565b6104598185610534565b93506104698185602086016105d7565b61047281610639565b840191505092915050565b610486816105cd565b82525050565b600060208201905081810360008301526104a68184610444565b905092915050565b600060408201905081810360008301526104c88185610444565b90506104d76020830184610435565b9392505050565b600060408201905081810360008301526104f88185610444565b9050610507602083018461047d565b9392505050565b6000602082019050610523600083018461047d565b92915050565b600081519050919050565b600082825260208201905092915050565b6000610550826105cd565b915061055b836105cd565b9250827fffffffffffffffffffffffffffffffffffffffffffffffffffffffffffffffff038211156105905761058f61060a565b5b828201905092915050565b60006105a6826105ad565b9050919050565b600073ffffffffffffffffffffffffffffffffffffffff82169050919050565b6000819050919050565b60005b838110156105f55780820151818401526020810190506105da565b83811115610604576000848401525b50505050565b7f4e487b7100000000000000000000000000000000000000000000000000000000600052601160045260246000fd5b6000601f19601f830116905091905056fea2646970667358221220b7607fa3ef2916ca277b78ce0c44dd0e07733c156067e7cb6e274c6ea3f60ed864736f6c63430008040033",
  "linkReferences": {},
  "deployedLinkReferences": {}
}